{
  "_format": "hh-sol-artifact-1",
  "contractName": "CrowdFunding",
  "sourceName": "contracts/CrowdFunding.sol",
  "abi": [
    {
      "inputs": [],
      "stateMutability": "nonpayable",
      "type": "constructor"
    },
    {
      "inputs": [
        {
          "internalType": "uint256",
          "name": "",
          "type": "uint256"
        },
        {
          "internalType": "address",
          "name": "",
          "type": "address"
        }
      ],
      "name": "campaignDonations",
      "outputs": [
        {
          "internalType": "uint256",
          "name": "",
          "type": "uint256"
        }
      ],
      "stateMutability": "view",
      "type": "function"
    },
    {
      "inputs": [
        {
          "internalType": "uint256",
          "name": "",
          "type": "uint256"
        }
      ],
      "name": "campaigns",
      "outputs": [
        {
          "internalType": "address",
          "name": "owner",
          "type": "address"
        },
        {
          "internalType": "string",
          "name": "title",
          "type": "string"
        },
        {
          "internalType": "string",
          "name": "description",
          "type": "string"
        },
        {
          "internalType": "uint256",
          "name": "target",
          "type": "uint256"
        },
        {
          "internalType": "uint256",
          "name": "deadline",
          "type": "uint256"
        },
        {
          "internalType": "uint256",
          "name": "amountCollected",
          "type": "uint256"
        },
        {
          "internalType": "string",
          "name": "image",
          "type": "string"
        },
        {
          "internalType": "bool",
          "name": "claimed",
          "type": "bool"
        }
      ],
      "stateMutability": "view",
      "type": "function"
    },
    {
      "inputs": [
        {
          "internalType": "address",
          "name": "_owner",
          "type": "address"
        },
        {
          "internalType": "string",
          "name": "_title",
          "type": "string"
        },
        {
          "internalType": "string",
          "name": "_description",
          "type": "string"
        },
        {
          "internalType": "uint256",
          "name": "_target",
          "type": "uint256"
        },
        {
          "internalType": "uint256",
          "name": "_deadline",
          "type": "uint256"
        },
        {
          "internalType": "string",
          "name": "_image",
          "type": "string"
        }
      ],
      "name": "createCampaign",
      "outputs": [
        {
          "internalType": "uint256",
          "name": "",
          "type": "uint256"
        }
      ],
      "stateMutability": "nonpayable",
      "type": "function"
    },
    {
      "inputs": [
        {
          "internalType": "uint256",
          "name": "_id",
          "type": "uint256"
        }
      ],
      "name": "donateToCampaign",
      "outputs": [],
      "stateMutability": "payable",
      "type": "function"
    },
    {
      "inputs": [],
      "name": "getCampaigns",
      "outputs": [
        {
          "components": [
            {
              "internalType": "address",
              "name": "owner",
              "type": "address"
            },
            {
              "internalType": "string",
              "name": "title",
              "type": "string"
            },
            {
              "internalType": "string",
              "name": "description",
              "type": "string"
            },
            {
              "internalType": "uint256",
              "name": "target",
              "type": "uint256"
            },
            {
              "internalType": "uint256",
              "name": "deadline",
              "type": "uint256"
            },
            {
              "internalType": "uint256",
              "name": "amountCollected",
              "type": "uint256"
            },
            {
              "internalType": "string",
              "name": "image",
              "type": "string"
            },
            {
              "internalType": "address[]",
              "name": "donators",
              "type": "address[]"
            },
            {
              "internalType": "uint256[]",
              "name": "donations",
              "type": "uint256[]"
            },
            {
              "internalType": "bool",
              "name": "claimed",
              "type": "bool"
            }
          ],
          "internalType": "struct CrowdFunding.Campaign[]",
          "name": "",
          "type": "tuple[]"
        }
      ],
      "stateMutability": "view",
      "type": "function"
    },
    {
      "inputs": [
        {
          "internalType": "uint256",
          "name": "_id",
          "type": "uint256"
        }
      ],
      "name": "getDonators",
      "outputs": [
        {
          "internalType": "address[]",
          "name": "",
          "type": "address[]"
        },
        {
          "internalType": "uint256[]",
          "name": "",
          "type": "uint256[]"
        }
      ],
      "stateMutability": "view",
      "type": "function"
    },
    {
      "inputs": [],
      "name": "numberOfCampaigns",
      "outputs": [
        {
          "internalType": "uint256",
          "name": "",
          "type": "uint256"
        }
      ],
      "stateMutability": "view",
      "type": "function"
    },
    {
      "inputs": [
        {
          "internalType": "uint256",
          "name": "_id",
          "type": "uint256"
        }
      ],
      "name": "refund",
      "outputs": [],
      "stateMutability": "nonpayable",
      "type": "function"
    },
    {
      "inputs": [
        {
          "internalType": "uint256",
          "name": "_id",
          "type": "uint256"
        }
      ],
      "name": "withdrawFunds",
      "outputs": [],
      "stateMutability": "nonpayable",
      "type": "function"
    }
  ],
  "bytecode": "0x60806040526000600255348015601457600080fd5b50612373806100246000396000f3fe6080604052600436106100865760003560e01c8063278ecde111610059578063278ecde11461016157806342a4fda81461018a578063564a7ac1146101a65780639943e3a1146101e3578063a6b036331461022057610086565b806307ca140d1461008b5780630fa91fa9146100b6578063141961bc146100f4578063155dd5ee14610138575b600080fd5b34801561009757600080fd5b506100a061024b565b6040516100ad919061113a565b60405180910390f35b3480156100c257600080fd5b506100dd60048036038101906100d89190611195565b610251565b6040516100eb929190611370565b60405180910390f35b34801561010057600080fd5b5061011b60048036038101906101169190611195565b610361565b60405161012f989796959493929190611461565b60405180910390f35b34801561014457600080fd5b5061015f600480360381019061015a9190611195565b61056e565b005b34801561016d57600080fd5b5061018860048036038101906101839190611195565b6107a9565b005b6101a4600480360381019061019f9190611195565b6109ef565b005b3480156101b257600080fd5b506101cd60048036038101906101c89190611520565b610b64565b6040516101da919061113a565b60405180910390f35b3480156101ef57600080fd5b5061020a60048036038101906102059190611695565b610b89565b604051610217919061113a565b60405180910390f35b34801561022c57600080fd5b50610235610ccb565b6040516102429190611a65565b60405180910390f35b60025481565b606080600080848152602001908152602001600020600701600080858152602001908152602001600020600801818054806020026020016040519081016040528092919081815260200182805480156102ff57602002820191906000526020600020905b8160009054906101000a900473ffffffffffffffffffffffffffffffffffffffff1673ffffffffffffffffffffffffffffffffffffffff16815260200190600101908083116102b5575b505050505091508080548060200260200160405190810160405280929190818152602001828054801561035157602002820191906000526020600020905b81548152602001906001019080831161033d575b5050505050905091509150915091565b60006020528060005260406000206000915090508060000160009054906101000a900473ffffffffffffffffffffffffffffffffffffffff16908060010180546103aa90611ab6565b80601f01602080910402602001604051908101604052809291908181526020018280546103d690611ab6565b80156104235780601f106103f857610100808354040283529160200191610423565b820191906000526020600020905b81548152906001019060200180831161040657829003601f168201915b50505050509080600201805461043890611ab6565b80601f016020809104026020016040519081016040528092919081815260200182805461046490611ab6565b80156104b15780601f10610486576101008083540402835291602001916104b1565b820191906000526020600020905b81548152906001019060200180831161049457829003601f168201915b5050505050908060030154908060040154908060050154908060060180546104d890611ab6565b80601f016020809104026020016040519081016040528092919081815260200182805461050490611ab6565b80156105515780601f1061052657610100808354040283529160200191610551565b820191906000526020600020905b81548152906001019060200180831161053457829003601f168201915b5050505050908060090160009054906101000a900460ff16905088565b600080600083815260200190815260200160002090508060000160009054906101000a900473ffffffffffffffffffffffffffffffffffffffff1673ffffffffffffffffffffffffffffffffffffffff163373ffffffffffffffffffffffffffffffffffffffff1614610616576040517f08c379a000000000000000000000000000000000000000000000000000000000815260040161060d90611b33565b60405180910390fd5b806003015481600501541015610661576040517f08c379a000000000000000000000000000000000000000000000000000000000815260040161065890611b9f565b60405180910390fd5b8060090160009054906101000a900460ff16156106b3576040517f08c379a00000000000000000000000000000000000000000000000000000000081526004016106aa90611c0b565b60405180910390fd5b60018160090160006101000a81548160ff02191690831515021790555060008160000160009054906101000a900473ffffffffffffffffffffffffffffffffffffffff1673ffffffffffffffffffffffffffffffffffffffff16826005015460405161071e90611c5c565b60006040518083038185875af1925050503d806000811461075b576040519150601f19603f3d011682016040523d82523d6000602084013e610760565b606091505b50509050806107a4576040517f08c379a000000000000000000000000000000000000000000000000000000000815260040161079b90611cbd565b60405180910390fd5b505050565b6000806000838152602001908152602001600020905080600401544211610805576040517f08c379a00000000000000000000000000000000000000000000000000000000081526004016107fc90611d29565b60405180910390fd5b806003015481600501541061084f576040517f08c379a000000000000000000000000000000000000000000000000000000000815260040161084690611dbb565b60405180910390fd5b60006001600084815260200190815260200160002060003373ffffffffffffffffffffffffffffffffffffffff1673ffffffffffffffffffffffffffffffffffffffff168152602001908152602001600020549050600081116108e7576040517f08c379a00000000000000000000000000000000000000000000000000000000081526004016108de90611e27565b60405180910390fd5b60006001600085815260200190815260200160002060003373ffffffffffffffffffffffffffffffffffffffff1673ffffffffffffffffffffffffffffffffffffffff1681526020019081526020016000208190555060003373ffffffffffffffffffffffffffffffffffffffff168260405161096390611c5c565b60006040518083038185875af1925050503d80600081146109a0576040519150601f19603f3d011682016040523d82523d6000602084013e6109a5565b606091505b50509050806109e9576040517f08c379a00000000000000000000000000000000000000000000000000000000081526004016109e090611e93565b60405180910390fd5b50505050565b60003490506000806000848152602001908152602001600020905080600401544210610a50576040517f08c379a0000000000000000000000000000000000000000000000000000000008152600401610a4790611eff565b60405180910390fd5b818160050154610a609190611f4e565b816005018190555080600701339080600181540180825580915050600190039060005260206000200160009091909190916101000a81548173ffffffffffffffffffffffffffffffffffffffff021916908373ffffffffffffffffffffffffffffffffffffffff16021790555080600801829080600181540180825580915050600190039060005260206000200160009091909190915055816001600085815260200190815260200160002060003373ffffffffffffffffffffffffffffffffffffffff1673ffffffffffffffffffffffffffffffffffffffff1681526020019081526020016000206000828254610b589190611f4e565b92505081905550505050565b6001602052816000526040600020602052806000526040600020600091509150505481565b6000428311610bcd576040517f08c379a0000000000000000000000000000000000000000000000000000000008152600401610bc490611ff4565b60405180910390fd5b600080600060025481526020019081526020016000209050878160000160006101000a81548173ffffffffffffffffffffffffffffffffffffffff021916908373ffffffffffffffffffffffffffffffffffffffff16021790555086816001019081610c3991906121c0565b5085816002019081610c4b91906121c0565b508481600301819055508381600401819055506000816005018190555082816006019081610c7991906121c0565b5060008160090160006101000a81548160ff02191690831515021790555060026000815480929190610caa90612292565b91905055506001600254610cbe91906122da565b9150509695505050505050565b6060600060025467ffffffffffffffff811115610ceb57610cea61156a565b5b604051908082528060200260200182016040528015610d2457816020015b610d116110b6565b815260200190600190039081610d095790505b50905060005b6002548110156110ae576000806000838152602001908152602001600020905080604051806101400160405290816000820160009054906101000a900473ffffffffffffffffffffffffffffffffffffffff1673ffffffffffffffffffffffffffffffffffffffff1673ffffffffffffffffffffffffffffffffffffffff168152602001600182018054610dbd90611ab6565b80601f0160208091040260200160405190810160405280929190818152602001828054610de990611ab6565b8015610e365780601f10610e0b57610100808354040283529160200191610e36565b820191906000526020600020905b815481529060010190602001808311610e1957829003601f168201915b50505050508152602001600282018054610e4f90611ab6565b80601f0160208091040260200160405190810160405280929190818152602001828054610e7b90611ab6565b8015610ec85780601f10610e9d57610100808354040283529160200191610ec8565b820191906000526020600020905b815481529060010190602001808311610eab57829003601f168201915b50505050508152602001600382015481526020016004820154815260200160058201548152602001600682018054610eff90611ab6565b80601f0160208091040260200160405190810160405280929190818152602001828054610f2b90611ab6565b8015610f785780601f10610f4d57610100808354040283529160200191610f78565b820191906000526020600020905b815481529060010190602001808311610f5b57829003601f168201915b505050505081526020016007820180548060200260200160405190810160405280929190818152602001828054801561100657602002820191906000526020600020905b8160009054906101000a900473ffffffffffffffffffffffffffffffffffffffff1673ffffffffffffffffffffffffffffffffffffffff1681526020019060010190808311610fbc575b505050505081526020016008820180548060200260200160405190810160405280929190818152602001828054801561105e57602002820191906000526020600020905b81548152602001906001019080831161104a575b505050505081526020016009820160009054906101000a900460ff1615151515815250508383815181106110955761109461230e565b5b6020026020010181905250508080600101915050610d2a565b508091505090565b604051806101400160405280600073ffffffffffffffffffffffffffffffffffffffff16815260200160608152602001606081526020016000815260200160008152602001600081526020016060815260200160608152602001606081526020016000151581525090565b6000819050919050565b61113481611121565b82525050565b600060208201905061114f600083018461112b565b92915050565b6000604051905090565b600080fd5b600080fd5b61117281611121565b811461117d57600080fd5b50565b60008135905061118f81611169565b92915050565b6000602082840312156111ab576111aa61115f565b5b60006111b984828501611180565b91505092915050565b600081519050919050565b600082825260208201905092915050565b6000819050602082019050919050565b600073ffffffffffffffffffffffffffffffffffffffff82169050919050565b6000611219826111ee565b9050919050565b6112298161120e565b82525050565b600061123b8383611220565b60208301905092915050565b6000602082019050919050565b600061125f826111c2565b61126981856111cd565b9350611274836111de565b8060005b838110156112a557815161128c888261122f565b975061129783611247565b925050600181019050611278565b5085935050505092915050565b600081519050919050565b600082825260208201905092915050565b6000819050602082019050919050565b6112e781611121565b82525050565b60006112f983836112de565b60208301905092915050565b6000602082019050919050565b600061131d826112b2565b61132781856112bd565b9350611332836112ce565b8060005b8381101561136357815161134a88826112ed565b975061135583611305565b925050600181019050611336565b5085935050505092915050565b6000604082019050818103600083015261138a8185611254565b9050818103602083015261139e8184611312565b90509392505050565b6113b08161120e565b82525050565b600081519050919050565b600082825260208201905092915050565b60005b838110156113f05780820151818401526020810190506113d5565b60008484015250505050565b6000601f19601f8301169050919050565b6000611418826113b6565b61142281856113c1565b93506114328185602086016113d2565b61143b816113fc565b840191505092915050565b60008115159050919050565b61145b81611446565b82525050565b600061010082019050611477600083018b6113a7565b8181036020830152611489818a61140d565b9050818103604083015261149d818961140d565b90506114ac606083018861112b565b6114b9608083018761112b565b6114c660a083018661112b565b81810360c08301526114d8818561140d565b90506114e760e0830184611452565b9998505050505050505050565b6114fd8161120e565b811461150857600080fd5b50565b60008135905061151a816114f4565b92915050565b600080604083850312156115375761153661115f565b5b600061154585828601611180565b92505060206115568582860161150b565b9150509250929050565b600080fd5b600080fd5b7f4e487b7100000000000000000000000000000000000000000000000000000000600052604160045260246000fd5b6115a2826113fc565b810181811067ffffffffffffffff821117156115c1576115c061156a565b5b80604052505050565b60006115d4611155565b90506115e08282611599565b919050565b600067ffffffffffffffff821115611600576115ff61156a565b5b611609826113fc565b9050602081019050919050565b82818337600083830152505050565b6000611638611633846115e5565b6115ca565b90508281526020810184848401111561165457611653611565565b5b61165f848285611616565b509392505050565b600082601f83011261167c5761167b611560565b5b813561168c848260208601611625565b91505092915050565b60008060008060008060c087890312156116b2576116b161115f565b5b60006116c089828a0161150b565b965050602087013567ffffffffffffffff8111156116e1576116e0611164565b5b6116ed89828a01611667565b955050604087013567ffffffffffffffff81111561170e5761170d611164565b5b61171a89828a01611667565b945050606061172b89828a01611180565b935050608061173c89828a01611180565b92505060a087013567ffffffffffffffff81111561175d5761175c611164565b5b61176989828a01611667565b9150509295509295509295565b600081519050919050565b600082825260208201905092915050565b6000819050602082019050919050565b600082825260208201905092915050565b60006117be826113b6565b6117c881856117a2565b93506117d88185602086016113d2565b6117e1816113fc565b840191505092915050565b600082825260208201905092915050565b6000611808826111c2565b61181281856117ec565b935061181d836111de565b8060005b8381101561184e578151611835888261122f565b975061184083611247565b925050600181019050611821565b5085935050505092915050565b600082825260208201905092915050565b6000611877826112b2565b611881818561185b565b935061188c836112ce565b8060005b838110156118bd5781516118a488826112ed565b97506118af83611305565b925050600181019050611890565b5085935050505092915050565b6118d381611446565b82525050565b6000610140830160008301516118f26000860182611220565b506020830151848203602086015261190a82826117b3565b9150506040830151848203604086015261192482826117b3565b915050606083015161193960608601826112de565b50608083015161194c60808601826112de565b5060a083015161195f60a08601826112de565b5060c083015184820360c086015261197782826117b3565b91505060e083015184820360e086015261199182826117fd565b9150506101008301518482036101008601526119ad828261186c565b9150506101208301516119c46101208601826118ca565b508091505092915050565b60006119db83836118d9565b905092915050565b6000602082019050919050565b60006119fb82611776565b611a058185611781565b935083602082028501611a1785611792565b8060005b85811015611a535784840389528151611a3485826119cf565b9450611a3f836119e3565b925060208a01995050600181019050611a1b565b50829750879550505050505092915050565b60006020820190508181036000830152611a7f81846119f0565b905092915050565b7f4e487b7100000000000000000000000000000000000000000000000000000000600052602260045260246000fd5b60006002820490506001821680611ace57607f821691505b602082108103611ae157611ae0611a87565b5b50919050565b7f536f6c6f20696c2063726561746f72652070756f207072656c65766172650000600082015250565b6000611b1d601e836113c1565b9150611b2882611ae7565b602082019050919050565b60006020820190508181036000830152611b4c81611b10565b9050919050565b7f546172676574206e6f6e207261676769756e746f000000000000000000000000600082015250565b6000611b896014836113c1565b9150611b9482611b53565b602082019050919050565b60006020820190508181036000830152611bb881611b7c565b9050919050565b7f466f6e64692067696127207072656c6576617469000000000000000000000000600082015250565b6000611bf56014836113c1565b9150611c0082611bbf565b602082019050919050565b60006020820190508181036000830152611c2481611be8565b9050919050565b600081905092915050565b50565b6000611c46600083611c2b565b9150611c5182611c36565b600082019050919050565b6000611c6782611c39565b9150819050919050565b7f46616c6c69746f206c27696e76696f2064692045746865720000000000000000600082015250565b6000611ca76018836113c1565b9150611cb282611c71565b602082019050919050565b60006020820190508181036000830152611cd681611c9a565b9050919050565b7f4c612063616d7061676e61206e6f6e20652720616e636f726120636869757361600082015250565b6000611d136020836113c1565b9150611d1e82611cdd565b602082019050919050565b60006020820190508181036000830152611d4281611d06565b9050919050565b7f496c2074617267657420652720737461746f207261676769756e746f2c206e6960008201527f656e74652072696d626f72736900000000000000000000000000000000000000602082015250565b6000611da5602d836113c1565b9150611db082611d49565b604082019050919050565b60006020820190508181036000830152611dd481611d98565b9050919050565b7f4e6f6e2068616920646f6e617a696f6e692064612072696d626f727361726500600082015250565b6000611e11601f836113c1565b9150611e1c82611ddb565b602082019050919050565b60006020820190508181036000830152611e4081611e04565b9050919050565b7f52696d626f72736f2066616c6c69746f00000000000000000000000000000000600082015250565b6000611e7d6010836113c1565b9150611e8882611e47565b602082019050919050565b60006020820190508181036000830152611eac81611e70565b9050919050565b7f4c612063616d7061676e61206527207363616475746100000000000000000000600082015250565b6000611ee96016836113c1565b9150611ef482611eb3565b602082019050919050565b60006020820190508181036000830152611f1881611edc565b9050919050565b7f4e487b7100000000000000000000000000000000000000000000000000000000600052601160045260246000fd5b6000611f5982611121565b9150611f6483611121565b9250828201905080821115611f7c57611f7b611f1f565b5b92915050565b7f4c612073636164656e7a61206465766520657373657265206e656c206675747560008201527f726f000000000000000000000000000000000000000000000000000000000000602082015250565b6000611fde6022836113c1565b9150611fe982611f82565b604082019050919050565b6000602082019050818103600083015261200d81611fd1565b9050919050565b60008190508160005260206000209050919050565b60006020601f8301049050919050565b600082821b905092915050565b6000600883026120767fffffffffffffffffffffffffffffffffffffffffffffffffffffffffffffffff82612039565b6120808683612039565b95508019841693508086168417925050509392505050565b6000819050919050565b60006120bd6120b86120b384611121565b612098565b611121565b9050919050565b6000819050919050565b6120d7836120a2565b6120eb6120e3826120c4565b848454612046565b825550505050565b600090565b6121006120f3565b61210b8184846120ce565b505050565b5b8181101561212f576121246000826120f8565b600181019050612111565b5050565b601f8211156121745761214581612014565b61214e84612029565b8101602085101561215d578190505b61217161216985612029565b830182612110565b50505b505050565b600082821c905092915050565b600061219760001984600802612179565b1980831691505092915050565b60006121b08383612186565b9150826002028217905092915050565b6121c9826113b6565b67ffffffffffffffff8111156121e2576121e161156a565b5b6121ec8254611ab6565b6121f7828285612133565b600060209050601f83116001811461222a5760008415612218578287015190505b61222285826121a4565b86555061228a565b601f19841661223886612014565b60005b828110156122605784890151825560018201915060208501945060208101905061223b565b8683101561227d5784890151612279601f891682612186565b8355505b6001600288020188555050505b505050505050565b600061229d82611121565b91507fffffffffffffffffffffffffffffffffffffffffffffffffffffffffffffffff82036122cf576122ce611f1f565b5b600182019050919050565b60006122e582611121565b91506122f083611121565b925082820390508181111561230857612307611f1f565b5b92915050565b7f4e487b7100000000000000000000000000000000000000000000000000000000600052603260045260246000fdfea26469706673582212207388078f17fcabdc8f747d450297260705d2d3ef82ef9c7dfedca936b2766f5d64736f6c634300081c0033",
  "linkReferences": {},
  "deployedLinkReferences": {}
}